{
  "_format": "hh-sol-artifact-1",
  "contractName": "Auction",
  "sourceName": "contracts/Auction.sol",
  "abi": [
    {
      "inputs": [],
      "stateMutability": "nonpayable",
      "type": "constructor"
    },
    {
      "anonymous": false,
      "inputs": [
        {
          "indexed": true,
          "internalType": "address",
          "name": "sender",
          "type": "address"
        },
        {
          "indexed": false,
          "internalType": "uint256",
          "name": "amount",
          "type": "uint256"
        }
      ],
      "name": "Bid",
      "type": "event"
    },
    {
      "anonymous": false,
      "inputs": [
        {
          "indexed": false,
          "internalType": "address",
          "name": "highestBidder",
          "type": "address"
        },
        {
          "indexed": false,
          "internalType": "uint256",
          "name": "highestBid",
          "type": "uint256"
        }
      ],
      "name": "End",
      "type": "event"
    },
    {
      "anonymous": false,
      "inputs": [],
      "name": "Start",
      "type": "event"
    },
    {
      "anonymous": false,
      "inputs": [
        {
          "indexed": true,
          "internalType": "address",
          "name": "bidder",
          "type": "address"
        },
        {
          "indexed": false,
          "internalType": "uint256",
          "name": "amount",
          "type": "uint256"
        }
      ],
      "name": "Withdraw",
      "type": "event"
    },
    {
      "inputs": [],
      "name": "bid",
      "outputs": [],
      "stateMutability": "payable",
      "type": "function"
    },
    {
      "inputs": [
        {
          "internalType": "address",
          "name": "",
          "type": "address"
        }
      ],
      "name": "bids",
      "outputs": [
        {
          "internalType": "uint256",
          "name": "",
          "type": "uint256"
        }
      ],
      "stateMutability": "view",
      "type": "function"
    },
    {
      "inputs": [],
      "name": "end",
      "outputs": [],
      "stateMutability": "nonpayable",
      "type": "function"
    },
    {
      "inputs": [],
      "name": "endAt",
      "outputs": [
        {
          "internalType": "uint256",
          "name": "",
          "type": "uint256"
        }
      ],
      "stateMutability": "view",
      "type": "function"
    },
    {
      "inputs": [],
      "name": "ended",
      "outputs": [
        {
          "internalType": "bool",
          "name": "",
          "type": "bool"
        }
      ],
      "stateMutability": "view",
      "type": "function"
    },
    {
      "inputs": [],
      "name": "highestBid",
      "outputs": [
        {
          "internalType": "uint256",
          "name": "",
          "type": "uint256"
        }
      ],
      "stateMutability": "view",
      "type": "function"
    },
    {
      "inputs": [],
      "name": "highestBidder",
      "outputs": [
        {
          "internalType": "address",
          "name": "",
          "type": "address"
        }
      ],
      "stateMutability": "view",
      "type": "function"
    },
    {
      "inputs": [],
      "name": "seller",
      "outputs": [
        {
          "internalType": "address payable",
          "name": "",
          "type": "address"
        }
      ],
      "stateMutability": "view",
      "type": "function"
    },
    {
      "inputs": [
        {
          "internalType": "uint256",
          "name": "startingBid",
          "type": "uint256"
        }
      ],
      "name": "start",
      "outputs": [],
      "stateMutability": "nonpayable",
      "type": "function"
    },
    {
      "inputs": [],
      "name": "started",
      "outputs": [
        {
          "internalType": "bool",
          "name": "",
          "type": "bool"
        }
      ],
      "stateMutability": "view",
      "type": "function"
    },
    {
      "inputs": [],
      "name": "withdraw",
      "outputs": [],
      "stateMutability": "payable",
      "type": "function"
    }
  ],
  "bytecode": "0x608060405234801561001057600080fd5b50336000806101000a81548173ffffffffffffffffffffffffffffffffffffffff021916908373ffffffffffffffffffffffffffffffffffffffff160217905550610f77806100606000396000f3fe60806040526004361061009c5760003560e01c806362ea82db1161006457806362ea82db146101365780637cc3ae8c1461017357806391f901571461019e57806395805dad146101c9578063d57bde79146101f2578063efbe1c1c1461021d5761009c565b806308551a53146100a157806312fa6feb146100cc5780631998aeef146100f75780631f2698ab146101015780633ccfd60b1461012c575b600080fd5b3480156100ad57600080fd5b506100b6610234565b6040516100c39190610960565b60405180910390f35b3480156100d857600080fd5b506100e1610258565b6040516100ee9190610996565b60405180910390f35b6100ff61026b565b005b34801561010d57600080fd5b50610116610499565b6040516101239190610996565b60405180910390f35b6101346104ac565b005b34801561014257600080fd5b5061015d600480360381019061015891906109f4565b610633565b60405161016a9190610a3a565b60405180910390f35b34801561017f57600080fd5b5061018861064b565b6040516101959190610a3a565b60405180910390f35b3480156101aa57600080fd5b506101b3610651565b6040516101c09190610a64565b60405180910390f35b3480156101d557600080fd5b506101f060048036038101906101eb9190610aab565b610677565b005b3480156101fe57600080fd5b506102076107bb565b6040516102149190610a3a565b60405180910390f35b34801561022957600080fd5b506102326107c1565b005b60008054906101000a900473ffffffffffffffffffffffffffffffffffffffff1681565b600060159054906101000a900460ff1681565b600060149054906101000a900460ff166102ba576040517f08c379a00000000000000000000000000000000000000000000000000000000081526004016102b190610b35565b60405180910390fd5b60015442106102fe576040517f08c379a00000000000000000000000000000000000000000000000000000000081526004016102f590610ba1565b60405180910390fd5b600254341161030c57600080fd5b600073ffffffffffffffffffffffffffffffffffffffff16600360009054906101000a900473ffffffffffffffffffffffffffffffffffffffff1673ffffffffffffffffffffffffffffffffffffffff16146103dd5760025460046000600360009054906101000a900473ffffffffffffffffffffffffffffffffffffffff1673ffffffffffffffffffffffffffffffffffffffff1673ffffffffffffffffffffffffffffffffffffffff16815260200190815260200160002060008282546103d59190610bf0565b925050819055505b3460028190555033600360006101000a81548173ffffffffffffffffffffffffffffffffffffffff021916908373ffffffffffffffffffffffffffffffffffffffff160217905550600360009054906101000a900473ffffffffffffffffffffffffffffffffffffffff1673ffffffffffffffffffffffffffffffffffffffff167fe684a55f31b79eca403df938249029212a5925ec6be8012e099b45bc1019e5d260025460405161048f9190610a3a565b60405180910390a2565b600060149054906101000a900460ff1681565b6000600460003373ffffffffffffffffffffffffffffffffffffffff1673ffffffffffffffffffffffffffffffffffffffff1681526020019081526020016000205490506000600460003373ffffffffffffffffffffffffffffffffffffffff1673ffffffffffffffffffffffffffffffffffffffff1681526020019081526020016000208190555060003373ffffffffffffffffffffffffffffffffffffffff168260405161055b90610c55565b60006040518083038185875af1925050503d8060008114610598576040519150601f19603f3d011682016040523d82523d6000602084013e61059d565b606091505b50509050806105e1576040517f08c379a00000000000000000000000000000000000000000000000000000000081526004016105d890610cb6565b60405180910390fd5b3373ffffffffffffffffffffffffffffffffffffffff167f884edad9ce6fa2440d8a54cc123490eb96d2768479d49ff9c7366125a9424364836040516106279190610a3a565b60405180910390a25050565b60046020528060005260406000206000915090505481565b60015481565b600360009054906101000a900473ffffffffffffffffffffffffffffffffffffffff1681565b600060149054906101000a900460ff16156106c7576040517f08c379a00000000000000000000000000000000000000000000000000000000081526004016106be90610d22565b60405180910390fd5b60008054906101000a900473ffffffffffffffffffffffffffffffffffffffff1673ffffffffffffffffffffffffffffffffffffffff163373ffffffffffffffffffffffffffffffffffffffff1614610755576040517f08c379a000000000000000000000000000000000000000000000000000000000815260040161074c90610db4565b60405180910390fd5b6001600060146101000a81548160ff021916908315150217905550620d2f004261077f9190610bf0565b600181905550806002819055507f1b55ba3aa851a46be3b365aee5b5c140edd620d578922f3e8466d2cbd96f954b60405160405180910390a150565b60025481565b600060149054906101000a900460ff16610810576040517f08c379a000000000000000000000000000000000000000000000000000000000815260040161080790610e20565b60405180910390fd5b600154421015610855576040517f08c379a000000000000000000000000000000000000000000000000000000000815260040161084c90610e8c565b60405180910390fd5b600060159054906101000a900460ff16156108a5576040517f08c379a000000000000000000000000000000000000000000000000000000000815260040161089c90610ef8565b60405180910390fd5b6001600060156101000a81548160ff0219169083151502179055507f7d7570b046e5ead3a4f3fbc9fa2445113625a1e79823776146316bafed6b8cc5600360009054906101000a900473ffffffffffffffffffffffffffffffffffffffff16600254604051610915929190610f18565b60405180910390a1565b600073ffffffffffffffffffffffffffffffffffffffff82169050919050565b600061094a8261091f565b9050919050565b61095a8161093f565b82525050565b60006020820190506109756000830184610951565b92915050565b60008115159050919050565b6109908161097b565b82525050565b60006020820190506109ab6000830184610987565b92915050565b600080fd5b60006109c18261091f565b9050919050565b6109d1816109b6565b81146109dc57600080fd5b50565b6000813590506109ee816109c8565b92915050565b600060208284031215610a0a57610a096109b1565b5b6000610a18848285016109df565b91505092915050565b6000819050919050565b610a3481610a21565b82525050565b6000602082019050610a4f6000830184610a2b565b92915050565b610a5e816109b6565b82525050565b6000602082019050610a796000830184610a55565b92915050565b610a8881610a21565b8114610a9357600080fd5b50565b600081359050610aa581610a7f565b92915050565b600060208284031215610ac157610ac06109b1565b5b6000610acf84828501610a96565b91505092915050565b600082825260208201905092915050565b7f4e6f7420737461727465642079657420746869732061756374696f6e00000000600082015250565b6000610b1f601c83610ad8565b9150610b2a82610ae9565b602082019050919050565b60006020820190508181036000830152610b4e81610b12565b9050919050565b7f456e646564000000000000000000000000000000000000000000000000000000600082015250565b6000610b8b600583610ad8565b9150610b9682610b55565b602082019050919050565b60006020820190508181036000830152610bba81610b7e565b9050919050565b7f4e487b7100000000000000000000000000000000000000000000000000000000600052601160045260246000fd5b6000610bfb82610a21565b9150610c0683610a21565b9250828201905080821115610c1e57610c1d610bc1565b5b92915050565b600081905092915050565b50565b6000610c3f600083610c24565b9150610c4a82610c2f565b600082019050919050565b6000610c6082610c32565b9150819050919050565b7f7769746864726177206372617368656400000000000000000000000000000000600082015250565b6000610ca0601083610ad8565b9150610cab82610c6a565b602082019050919050565b60006020820190508181036000830152610ccf81610c93565b9050919050565b7f616c72656164792072756e6e696e670000000000000000000000000000000000600082015250565b6000610d0c600f83610ad8565b9150610d1782610cd6565b602082019050919050565b60006020820190508181036000830152610d3b81610cff565b9050919050565b7f796f7520646964206e6f74207374617274207468652061756374696f6e20636860008201527f6561746572210000000000000000000000000000000000000000000000000000602082015250565b6000610d9e602683610ad8565b9150610da982610d42565b604082019050919050565b60006020820190508181036000830152610dcd81610d91565b9050919050565b7f6e65656420746f207374617274206265666f7265210000000000000000000000600082015250565b6000610e0a601583610ad8565b9150610e1582610dd4565b602082019050919050565b60006020820190508181036000830152610e3981610dfd565b9050919050565b7f41756374696f6e206973207374696c6c206f6e676f696e670000000000000000600082015250565b6000610e76601883610ad8565b9150610e8182610e40565b602082019050919050565b60006020820190508181036000830152610ea581610e69565b9050919050565b7f41756374696f6e20616c726561647920656e6465642100000000000000000000600082015250565b6000610ee2601683610ad8565b9150610eed82610eac565b602082019050919050565b60006020820190508181036000830152610f1181610ed5565b9050919050565b6000604082019050610f2d6000830185610a55565b610f3a6020830184610a2b565b939250505056fea2646970667358221220ac9d5a0d87b0dc411cb417206c976d0ea17aee752767f46dbd178ca9675b929564736f6c63430008110033",
  "linkReferences": {},
  "deployedLinkReferences": {}
}